:020000040800F2
:1000000010090020390100080B130008F90D000841
:1000100000000000000000000000000000000000E0
:10002000000000000000000000000000391D000872
:100030000000000000000000A1190008391E00089F
:100040004B0100084B0100084B0100084B01000860
:100050004B0100084B0100084B0100084B01000850
:10006000000000004B0100084B0100084B01000894
:100070004B0100084B0100084B0100084B01000830
:100080004B01000800000000000000004B010008C8
:10009000000000004B0100084B0100084B01000864
:1000A000000000004B01000800000000B91E00081D
:1000B00000F002F800F030F80CA030C8083824181E
:1000C0002D18A246671EAB4654465D46AC4201D190
:1000D00000F022F87E460F3E0FCCB6460126334292
:1000E00000D0FB1AA246AB46334318472834000021
:1000F000483400000023002400250026103A01D3D4
:1001000078C1FBD8520700D330C100D50B607047CF
:100110001FB51FBD10B510BD00F06AFD1146FFF7F9
:10012000F7FF02F0B5F900F082FD03B4FFF7F2FF2C
:1001300003BC00F0B7FD00000748804707480047B0
:10014000FEE7FEE7FEE7FEE7FEE7FEE704480549B7
:10015000054A064B704700003D1E0008B10000082C
:1001600010030020100900201005002010050020B9
:10017000002203098B422CD3030A8B4211D30023A4
:100180009C464EE003460B433CD4002243088B427E
:1001900031D303098B421CD3030A8B4201D394460B
:1001A0003FE0C3098B4201D3CB01C01A52418309FE
:1001B0008B4201D38B01C01A524143098B4201D3B8
:1001C0004B01C01A524103098B4201D30B01C01AE3
:1001D0005241C3088B4201D3CB00C01A524183085D
:1001E0008B4201D38B00C01A524143088B4201D38A
:1001F0004B00C01A5241411A00D2014652411046EA
:1002000070475DE0CA0F00D04942031000D340425E
:10021000534000229C4603098B422DD3030A8B4294
:1002200012D3FC22890112BA030A8B420CD3890132
:1002300092118B4208D3890192118B4204D3890118
:100240003AD0921100E08909C3098B4201D3CB0156
:10025000C01A524183098B4201D38B01C01A52410B
:1002600043098B4201D34B01C01A524103098B420F
:1002700001D30B01C01A5241C3088B4201D3CB00FA
:10028000C01A524183088B4201D38B00C01A5241DD
:10029000D9D243088B4201D34B00C01A5241411AB4
:1002A00000D20146634652415B10104601D34042E2
:1002B000002B00D54942704763465B1000D3404293
:1002C00001B50020C046C04602BD70477047704768
:1002D0000246C80FC00781434B0030B54B405B005E
:1002E0009B0D20D01923DB06C91801231B05994259
:1002F00020DB0324A40704251346AB400BD3002BBB
:1003000004D1EB0613409B00E34204D401246407AC
:10031000002312195941FF231B0599420BD2C90032
:100320000143500F09E0CB0204D501430803024307
:1003300005D0054830BDFF21C905084330BD08463A
:1003400007210905884330BD0000C07FF0B50C4689
:10035000871A9C410D46861A9D4103D2C01BA141BC
:10036000D21963410D0D1F0DC94EEC1BAE435CD07D
:100370007F057F0D0026002F51D02D05AC46A943E7
:10038000DD020123ED0A1B051D4320231B1B24D482
:100390001746E740381871412F46E740CC199D4079
:1003A0002818314661410C0D27D161449A4013D57C
:1003B0000023401C594152000ED140084000012248
:1003C0004B005205D34207D305204007C14201D557
:1003D000B04900E0B0493046F0BD6B00002A00D0C3
:1003E00001229A181F23203C1B1B01D5002302E089
:1003F000E540281871410C0DD7D0012424050919B6
:10040000C407CD0740084908E40F28436144002C85
:10041000D5D00024401C61419A40D0D1CDE76A0577
:10042000520DD9D1C90FC907D5E79C4D4E00002800
:1004300001D0012400E0002434195F00002A01D01B
:10044000012600E00026BE19954FAC420CD8AE4202
:100450000AD8B44206D001256D05EC42BCD0104646
:100460001946F0BD9942FCD000203946F0BDF0B5E8
:100470001FB40C460F46811A9F412546861A9D419E
:1004800006D20125ED076F40401ABC4152187B414E
:10049000210D1E0D8D1BAC467D4D8D437ED0750507
:1004A0006D0D7CD00D05AE46AC431B031B0B794D87
:1004B00052429D41202366469B1B14D31746F740AA
:1004C000381800260090744160462F460741E41911
:1004D00000989D402818664116D4714671189A40BC
:1004E00025D5012320E093182A466A415200002BAB
:1004F00000D0521C1E23203E9B1B002B61DD35418A
:10050000EE1728186641E8D5001876415B1C9A4022
:1005100000D3401C4B05F3181524E34010D3002BE7
:1005200052D071467118D30FC01802D3491C05B0C0
:10053000F0BD0123DB079A42F9D140084000F6E7FD
:1005400001225205B21801D1002853D00123CC0A50
:10055000DB029943891E002A08D1020C03D0020C49
:100560000004103902E00246002020390023550B18
:1005700005D112020823550B01D152010D23550C50
:1005800001D112011B1DD50C01D192009B1C150D30
:1005900001D152005B1C2025EE1A01E02CE022E084
:1005A0000546F54015439840CA1AE1076918130536
:1005B000C918002ABBDA032040070818C10FC90771
:1005C0000FE071466118B2E7F10740080843711067
:1005D00071444A000CD001235B059A42A7D2C90F8F
:1005E000C9070020A3E74905490D26D1002001E0F5
:1005F0000028F4D100219AE7284D6600002801D098
:10060000012100E0002171185F00002A01D00126BD
:1006100000E00026BE19224FA94210D8AE420ED8E3
:10062000B14208D001256D05E94206D01946A8025D
:10063000414010467BE79C4201D0214677E70020ED
:10064000394674E710B50C465C4005D50124E40733
:100650006340FFF70CFF10BDFFF778FE10BD30B40C
:100660000C465C4004D50124E407634030BC6DE6D1
:1006700030BCFCE670B50124E40761400D465D40E6
:1006800002D4FFF763FE70BD6340FFF7F0FE70BD5C
:10069000FF0700000000F0FF0000F07F0000E0FF17
:1006A0000000F87FF0B58B4C0F09254689B0BD439B
:1006B0007BD01D092646AE43FAD00E465E40274049
:1006C000F60F3E43254071D024012142FBD0FF2488
:1006D000AD19A4042D1B039501252D05DB02DB0AB2
:1006E000C9022B43C90A29431E010901040F130F34
:1006F000050121431701880B820391432D098C4684
:10070000A90B1E438A039543B30B9A0396433F09F3
:10071000BA0B9403A74302962E467E430497B6462F
:100720004E19D7190C460196544305977E43371B43
:100730007646BF1B3601B646BE0B36190096764686
:10074000BC043719009C01D3641C00946400002F82
:1007500001D001263443029E049F754366467E43C2
:100760000496760034196E0034190094029C019EA0
:100770001C196643751BAE46069465464519059CD3
:1007800005956C43594375460891691A0191049E79
:1007900001465143A41B0491611A009C0791E10694
:1007A00005D061090122114302E072E06EE06109A7
:1007B000089D00272C0A2D066918049D7C412A0AF1
:1007C0002D066918019D6241AC0DAD026D185441B2
:1007D000079A910D920255196141029A6446584355
:1007E0005443069B059A5A43121A131B9A0E9B01F7
:1007F0005B187A41010B0005C3185141220A2006FB
:1008000044195A419A4200D2491C012040028142B7
:1008100003D315230226F64302E014230326F643EE
:100820002020C51AA9401746AF40DA400A432046A7
:100830000399D8400914731819055118039A3843BD
:10084000D2075140AC4009D00122944006D3002287
:10085000401C5141002C01D1400840001E4A9342E7
:1008600012D3012203989206904207DB052040072D
:1008700009181A480143C012414004E00320400710
:100880000818C10FC907002009B0F0BD0020F1070A
:10089000FAE705180C464C4111486D42A04115D3AA
:1008A00094181A465A410E48644290410ED30120D2
:1008B0004A004005824209D35A00824206D3594079
:1008C000C90F084AC90700201143DDE70020064987
:1008D000DAE700000000FF07FE070000FFFFFF7FD0
:1008E0000000E0FF0000F07F0000F87F0121C90553
:1008F0000123411842001B06D3185B0E0AD0C11019
:100900000722D206891840075242D14201D552002F
:1009100089187047090208D50146002A03D0C10F83
:10092000C9070020704710467047420202D00020DD
:1009300002497047072109050143F4E70000F87FE9
:10094000F0B5FF252D04C609C209FF2704462E4035
:100950000137CB093E4348402A402B400746002A36
:100960006BD0002B69D0AA4267D0AB4265D000287B
:1009700000DA32460125ED0529432C430902200205
:10098000090AD21A4B0C7F24E31A434C000A7C4418
:10099000E35C7D242404121914145B00A21888421D
:1009A00001D3521C00E0400049420C465C43241134
:1009B0005C43DB016415E318040A5C43C502200DA7
:1009C0000C4644436419250A5D432303EC0C0D4691
:1009D000654300030019EB184C42A34201D35B1896
:1009E000401CD4052018002B07D05B00C91804D385
:1009F000401C002901D1400840003F2189048A425F
:100A000009D3002A08DC1106090F04D00321490785
:100A10004018C00FC007F0BD01224100120689181E
:100A20007F2252069142F6D205214907C84201D5DC
:100A30009010F0BDFF20C005F0BD002F00DA324657
:100A40001648AA4207D2AB4205D21902090E17D0A6
:100A5000F80FC007F0BDFF2563002D06AB42F9D8A3
:100A60004900A942F6D8AB4201D1A942F2D0A9422D
:100A700001D1002101E061004908D0050843F0BD23
:100A80001102090EFBD0FF200243D005F0BD0A463B
:100A90000146104654E70000422B00000000C07FD2
:100AA00010B501469E240002CA15A307002A02D0F1
:100AB0001843002A04DBA21A002A0CDDD04010BD26
:100AC0001206120E01D140004008A21A03D4D040F1
:100AD00040420028F3DDFF2248001206904201D96F
:100AE000002010BDC817C043584010BD1F22030C82
:100AF00002D10F2200041CD0030E01D10002083ADB
:100B0000030F01D10001121F830F01D18000921E3B
:100B1000002801DB4000521ED20551180212511864
:100B20001922904004D3491C002801D149084900EA
:100B300008467047C10FC90700D040420122920702
:100B40001143D3E701218907D0E7000010B5FF2347
:100B50001B0644009C421DD84C009C421AD80346F8
:100B6000124A0B4307D4401A02D3EFF3008010BDA2
:100B7000EFF3008010BD081A06D2EFF300800121C8
:100B80009043C907084302E0EFF30080904380F3ED
:100B9000008810BD0D231B041A4204D0114600200A
:100BA00000F006F810BD00F01BF810BD000000902A
:100BB000C80212D54803400F002804D0C803C04320
:100BC000012188407047EFF30080000100090321F4
:100BD0000907084380F30088704700207047000031
:100BE00010B5024800F02BF810BD00000000C07FD7
:100BF000754600F053F8AE46050069465346C008F6
:100C0000C000854618B020B5FFF7A0FA60BC0027E9
:100C10004908B6460026C0C5C0C5C0C5C0C5C0C5C8
:100C2000C0C5C0C5C0C5403D49008D46704710B520
:100C30000446C046C0462046FFF777FA10BD10B5FF
:100C40000C461107090F092904D00A290AD00829DE
:100C50000CD104E011460820FFF7AAFF06E0510678
:100C600006D501E0510601D50120C007214610BD7F
:100C7000D10607D501010909CC084907000E000675
:100C8000044309E0410F20024907000A0143200EF6
:100C900000061D22D14101430846E7E7004870479E
:100CA000AC02002001491820ABBEFEE7260002007E
:100CB000704770B58C180578401C6B075B0F01D12D
:100CC0000378401C2A1106D10278401C03E0067804
:100CD000401C0E70491C5B1EF9D12B0705D4002364
:100CE000521E0DD40B70491CFAE70378401CCB1A36
:100CF000921C03E01D780D70491C5B1C521EF9D537
:100D0000A142D8D3002070BDF0B50A4600210023CF
:100D1000002400BF3DE001258D402B4615681D4095
:100D20002C469C4234D11579012D02D01579022D23
:100D300016D185684F000326BE40B54385605579BE
:100D40004E00B540866835438560858801268E4013
:100D5000B5438580858896798E40B6B235438580C7
:100D600005684F000326BE40B543056015794E0067
:100D7000B540066835430560C5684F000326BE4090
:100D8000B543C560D5794E00B540C6683543C560EA
:100D9000491C1029BFD3F0BDF0B5002300244D0736
:100DA000EE0E1546B5402B46CD10AE00054620355B
:100DB000AD594E07F70E0F26BE40B543CE10B60014
:100DC00007462037BD51CD10AE003D46AD591D43FD
:100DD0002C46CD10AD003E467451F0BD02460020B9
:100DE000138A0B40002B01D0012000E00020704747
:100DF000018570478161704700BFFEE710B509208B
:100E0000C006808A0121490288430921C9068882D7
:100E100000F0AAFE0920C006808A012189028843C9
:100E20000921C9068882142001F0B8FA0920C006F9
:100E3000808A01214902884340180921C906888215
:100E4000022001F0ABFA0920C006808A0121490284
:100E500088430921C906888210BD1CB501214804B8
:100E600000F0A0FD032040020090012168460171BE
:100E70000321417169460920C006FFF745FF09209B
:100E8000C006808A01214902884340180921C90609
:100E900088820846808A01218902884340180921F6
:100EA000C90688821CBD10B50920C006808A0121B0
:100EB000490288430921C906888200F055FE0920AD
:100EC000C006808A01218902884340180921C90689
:100ED0008882052001F062FA0920C006808A01217B
:100EE0004902884340180921C9068882052001F07B
:100EF00055FA0920C006808A012149028843092148
:100F0000C906888210BD70B50546002400F020FE99
:100F1000002624E00920C006808A01214902884376
:100F20000921C9068882052001F038FA0920C00687
:100F3000808A01214902884340180921C906888214
:100F40006006040E0846008A4005C00F002801D044
:100F5000601CC4B2052001F021FA701CC6B2082E34
:100F6000D8DB002D02D1FFF79EFF01E0FFF746FF1F
:100F7000204670BD70B5044600F0F6FD0920C0069D
:100F8000808A0121490288430921C90688820025F7
:100F900030E00920C006808A01218902884380212F
:100FA0002140C911890201229202114008430921FE
:100FB000C90688826006040E052001F0EFF90920B9
:100FC000C006808A01214902884340180921C906C8
:100FD0008882052001F0E2F90920C006808A0121FB
:100FE000490288430921C9068882052001F0D6F903
:100FF000681CC5B2082DCCDB70BD10B500F0B4FD87
:101000000920C006808A01218902884340180921ED
:10101000C90688820846808A01214902884340180F
:101020000921C9068882042001F0B8F90920C00608
:10103000808A0121890288430921C9068882042007
:1010400001F0ACF90920C006808A012149028843D9
:101050000921C9068882042001F0A0F910BD10B54D
:1010600000F082FD0920C006808A012149028843E0
:101070000921C90688820846808A0121890288439D
:101080000921C9068882042001F088F90920C006D8
:10109000808A01214902884340180921C9068882B3
:1010A000012001F07BF90920C006808A0121890214
:1010B000884340180921C9068882042001F06EF98E
:1010C00010BD10B5002400F043FD0920C006808A41
:1010D00001218902884340180921C906888201201C
:1010E00001F05CF90920C006808A01214902884389
:1010F00040180921C9068882012001F04FF907E054
:10110000601CC4B2FA2C03DDFFF7A9FF012010BD5B
:101110000920C006008A4005C00F0028F0D1092030
:10112000C006808A0121490288430921C9068882B4
:101130000020ECE710B502210848FFF75BFE802194
:101140000920C006FFF756FE80210920C006FFF7E0
:101150004FFE02210148FFF74BFE10BD000400487E
:1011600010B502210648FFF745FE80210920C00680
:10117000FFF73EFE80210920C006FFF73BFE10BDB1
:101180000004004810B502210348FFF733FE022196
:101190000148FFF72DFE10BD000400481CB50121D9
:1011A000480400F0FFFB43200090002168460171D5
:1011B000032141710121C17169460920C006FFF771
:1011C000A3FD1CBD10B501210920C006FFF706FED6
:1011D00000280DD002210920C006FFF7FFFD0028DE
:1011E00006D040210920C006FFF7F8FD002835D1C0
:1011F0000A2001F0A9F801210920C006FFF7EEFD41
:10120000002809D100BF01210920C006FFF7E6FD33
:101210000028F8D0012010BD02210920C006FFF7E8
:10122000DDFD002809D100BF02210920C006FFF71B
:10123000D5FD0028F8D00220EDE740210920C006A6
:10124000FFF7CCFD00281FD100BF40210920C006B8
:10125000FFF7C4FD0028F8D00320DCE701210920B6
:10126000C006FFF7BBFD00280ED102210920C006F1
:10127000FFF7B4FD002807D140210920C006FFF781
:10128000ADFD002800D1C6E70020C4E710B510214D
:101290000920C006FFF7ACFDFA2001F055F8102137
:1012A0000920C006FFF7A6FDFA2001F04DF810BD99
:1012B00010B510210920C006FFF79AFD054801F07E
:1012C00043F810210920C006FFF794FD014801F002
:1012D0003BF810BDDC0500001CB50121480400F0FE
:1012E00061FB10200090012168460171002181718D
:1012F0000321417169460920C006FFF705FD102151
:101300000920C006FFF776FD1CBD704700218278DA
:10131000002A27D0184A03231B02D21803789B10F7
:101320009B00D15802789207D30EFF229A400B46B9
:101330009343194642789207120E03789B07DB0EFF
:101340009A4011430C4A03231B02D21803789B10C6
:101350009B00D1500278D306DB0E01229A40064B47
:101360001A6007E00278D306DB0E01229A40024B96
:1013700080331A607047000000E100E070B500247F
:1013800018E02046B030002100F08DFA0021084618
:1013900000F089FA0021102000F085FA002505E010
:1013A0000121002000F07FFA681CC5B2802DF7DB18
:1013B000601CC4B2082CE4DB70BD10B500218D2088
:1013C00000F071FA0021102000F06DFA0021AE202B
:1013D00000F069FA10BD10B500218D2000F063FA0D
:1013E0000021142000F05FFA0021AF2000F05BFA2A
:1013F00010BD00001CB50121480400F0D3FA802084
:10140000009001216846017103214171694609205C
:10141000C006FFF779FC80210920C006FFF7EAFC2F
:101420000121880400F0BEFA0220009001216846E4
:1014300001710321417169463B48FFF765FC0221B8
:101440003948FFF7D7FC1920400100F07DFF00214B
:10145000AE2000F028FA0021084600F024FA00210E
:10146000102000F020FA0021402000F01CFA00219A
:10147000B02000F018FA0021812000F014FA0021B9
:10148000FF2000F010FA0021A12000F00CFA00214A
:10149000A62000F008FA0021A82000F004FA00219C
:1014A0003F2000F000FA0021C82000F0FCF90021E4
:1014B000D32000F0F8F90021084600F0F4F90021EB
:1014C000D52000F0F0F90021802000F0ECF9002197
:1014D000D82000F0E8F90021052000F0E4F900210F
:1014E000D92000F0E0F90021F12000F0DCF9002122
:1014F000DA2000F0D8F90021122000F0D4F9002100
:10150000DB2000F0D0F90021302000F0CCF90021E0
:101510008D2000F0C8F90021142000F0C4F900214A
:10152000AF2000F0C0F91CBD0004004870B50446AF
:101530000D462846B030002100F0B5F9F0212140D9
:10154000091108461030002100F0ADF92007000F06
:10155000002100F0A8F970BDF7B50E46154600272A
:1015600031460098FFF7E2FF00240AE0A901114A82
:101570008918085D012100F096F9781CC7B2601C3B
:10158000C4B2102CF2DB701CC1B20098FFF7CEFF82
:1015900000240CE06900491C4901064A8918085DCD
:1015A000012100F080F9781CC7B2601CC4B2102C75
:1015B000F0DBFEBD18000020FFB581B007460D46E8
:1015C0000026002403982038C6B27F2F02DD0027B2
:1015D000A81CC5B20498102824D129463846FFF724
:1015E000A5FF002408E031010919184A505C0121C7
:1015F00000F059F9601CC4B2082CF4DB681CC1B2BD
:101600003846FFF793FF002409E03101091908313A
:101610000E4A505C012100F046F9601CC4B2082C4F
:10162000F3DB11E029463846FFF780FF002409E08C
:1016300006217143064A8918085D012100F033F93B
:10164000601CC4B2062CF3DB05B0F0BDE02E000830
:10165000B82C0008FFB589B0044617461D46002681
:1016600000200890069005900021384601F084FA89
:1016700002D20120079004E0002007900120C0075B
:1016800047403846FFF70CFA06900698FFF752FAE3
:101690003946019001F09CFA4F49029001F014FA8A
:1016A0007F21C9050390FFF74BF90490FFF7F8F984
:1016B000059006E0701CC6B20A210698FEF762FD8E
:1016C000069006980028F5D1022008903846FFF7CA
:1016D000E7F906900798002838D0102D19D1334625
:1016E00000952046069A0A9900F078F8F100091949
:1016F000C8B22B462E220A99FFF75EFF711CC90063
:101700000919C8B20095089B059A0A9900F066F875
:1017100060E0334600952046069A0A9900F05EF88C
:10172000062171430919C8B22B462E220A99FFF7E8
:1017300043FF701C062148430019C0B20095049075
:10174000089B059A0A9900F049F843E02B462D22A0
:1017500020460A99FFF730FF102D1CD12146083191
:10176000C8B233460095069A0A9900F037F8711C02
:10177000C9000919C8B22B462E220A99FFF71CFF8F
:10178000B11CC9000919C8B20095089B059A0A99AD
:1017900000F024F81EE0A11DC8B233460095069A59
:1017A0000A9900F01BF8701C062148430019C0B2CA
:1017B0002B462E2204900A99FFF7FEFEB01C06214C
:1017C00048430019C0B200950490089B059A0A99F5
:1017D00000F004F80DB0F0BD0000C842FFB583B0C2
:1017E0001E460C9C0020029000253CE0701B401E11
:1017F000C1B20A2000F062FF014600900598FEF792
:10180000B7FC0A210190FEF7B3FC0F4602980028AE
:1018100015D1701EA84212DD002F0ED1E00F001965
:1018200040106843019403994018C0B22346202217
:1018300000900499FFF7C0FE13E001200290E00F32
:10184000001940106843019403994018C0B20090F9
:1018500038463030C2B2234604990098FFF7ACFEF8
:1018600000BF681CC5B2B542C0DB07B0F0BDFFB514
:1018700081B004460F46154600260FE0AA5D3946A2
:101880002046049BFFF798FE20460830C4B2782C0F
:1018900002DD0024B81CC7B2701CC6B2A85D0028C7
:1018A000ECD105B0F0BD70B504460D46002D03D057
:1018B000E0B200F06FFC02E0E0B200F055FC70BD59
:1018C00070B504460D46FFF759FD002211460E2063
:1018D000FFF742FE012200212220FFF73DFE1023E8
:1018E000262200213C20FFF767FE022200214E2025
:1018F000FFF732FE032200216420FFF72DFE0422B1
:1019000003210620FFF728FE052203211820FFF7F8
:1019100023FE10233A2203212A20FFF74DFE102335
:10192000224603213420FFF795FE102310A2032145
:101930006820FFF79CFF042206210846FFF70CFEF3
:10194000052206211820FFF707FE10233A22062160
:101950002A20FFF731FE10232A4606213420FFF704
:1019600079FE102303A206216A20FFF780FF70BDD5
:1019700027430000250000001CB50121480400F0A9
:1019800011F8202000900121684601710021817129
:101990000321417169460920C006FFF7B5F91CBD56
:1019A00070470000002905D0054A52690243044BE4
:1019B0005A6104E0024A52698243014B5A617047FE
:1019C00000100240002905D0054A92690243044BE9
:1019D0009A6104E0024A92698243014B9A6170471E
:1019E00000100240FEB504460025002600200190AC
:1019F00000900027504840680C2108400546002D03
:101A000004D0042D05D0082D28D105E04B482060D6
:101A100027E04A48206024E0474840680F218904B5
:101A200008400646444840680121090408400190E6
:101A3000B00C861C0198002803D1414870432060F7
:101A40000BE03D48C06A0007000F401C00903B4877
:101A50000099FEF78DFB7043206002E0374820605C
:101A600000BF00BF34484068F021084005462D09FA
:101A70003448475D2068F84060602F48406807217F
:101A80000902084005462D0A2E48475D6068F84067
:101A9000A0602948006BFF2101310840884202D034
:101AA0002948E0600DE0244840680121890308408E
:101AB000884203D0A0684008E06002E0A068800887
:101AC000E0601D48006B40210840402802D01F48BC
:101AD000206102E00120C00320611748006B102143
:101AE0000840102802D01548606101E0206860615C
:101AF0001148006B8007800F002802D1A068A06108
:101B000019E00D48006B8007800F012802D1206882
:101B1000A06110E00848006B8007800F022802D106
:101B20008003A06107E00448006B8007800F032852
:101B300001D10248A061FEBD0010024000127A00EF
:101B400000093D0018020020809FD500128000008F
:101B50001CB5012080020090002069460871092010
:101B6000C006FFF7D1F81CBD1CB501208002009013
:101B70000121684601710321417169460920C006AF
:101B8000FFF7C2F81CBD0000F0B58BB00020089034
:101B9000FFF733FA8020FFF7EDF9FFF792FA09908B
:101BA000F520FFF7E7F9FFF78CFA099000BF6420F2
:101BB00000F0CAFBFFF721FA8120FFF7DBF9089854
:101BC000401C80B20890FFF77CFA099008986428BE
:101BD00000D102E009980028E9D100BF0120FFF7F9
:101BE00092F905460120FFF78EF906460020FFF71F
:101BF0008AF9FFF734FA280230430746BF08BF00CE
:101C00003846FEF79FFF0190FEF770FE094A0A4B27
:101C100003910290FEF746FD0022084B05910490C7
:101C2000FEF71DFD07910690FEF752FB0446204685
:101C30000BB0F0BD7644CF7701405F3F0000184005
:101C4000F0B58BB000200890FFF7D7F98020FFF7A0
:101C500091F9FFF736FA0990F320FFF78BF9FFF7B8
:101C600030FA099000BF642000F06EFBFFF7C5F961
:101C70008120FFF77FF90898401C80B20890FFF799
:101C800020FA09907D21C9000898884200D102E01D
:101C900009980028E7D100BF0120FFF734F9054675
:101CA0000120FFF730F906460020FFF72CF9FFF777
:101CB000D6F9280230430746BF08BF003846FEF772
:101CC00041FF0190FEF712FE094A0A4B0391029070
:101CD000FEF7E8FC084A094B05910490FEF7BFFCAB
:101CE00007910690FEF7F4FA044620460BB0F0BDCB
:101CF000619FC6DE07F7653FCDCCCCCCCC6C4740AE
:101D000010B5FFF7AAF800F003F80446204610BD0E
:101D100010B50024FFF771F98020FFF72BF9FFF7CA
:101D2000D0F90446FE20FFF725F9FFF7CAF904466B
:101D3000FFF795F9204610BD704700000CB5002054
:101D400001900090314800680121090408432F499F
:101D5000086000BF2D480068012149040840009038
:101D60000198401C01900098002804D10521090326
:101D700001988842EED125480068012149040840B5
:101D8000002802D00120009001E00020009000987F
:101D9000012839D111201E4908601C4840681B49A0
:101DA0004860084640684860084640683F2109048A
:101DB00088431649486008464068112109040843D1
:101DC00012494860084600680121090608430F4986
:101DD000086000BF0D48006801214906084000283E
:101DE000F8D00A48406880088000084948600846E2
:101DF0004068022108430549486000BF0348406825
:101E00000C2108400828F9D10CBD00000010024048
:101E100000200240042806D1064909690422114322
:101E2000044A116105E00349096904229143014A0A
:101E30001161704700E000E07047000010B51B48DA
:101E4000006801210843194908600846406818499C
:101E5000084016494860084600681649084013497A
:101E60000860084600680121890488430F4908601A
:101E7000084640683F21090488430C4948600846E9
:101E8000C06A00090001C8620846006BFF21543196
:101E90008843064908630846406B40084000486391
:101EA00000208860FFF74AFF10BD000000100240CC
:101EB0000CB8FFF8FFFFF6FE10B5002406490748EE
:101EC00000F074F8002806D0044820308088C4B29E
:101ED000204600F0A9FC10BD0501050000380140B6
:101EE00010B58AB0044601214804FFF75BFD0121CB
:101EF0008803FFF767FD012202210920C006FEF7D3
:101F00004BFF012203210920C006FEF745FF0C20EC
:101F10000890022108A801710321417100218171FB
:101F20000121C17108A90920C006FEF7EDFE029447
:101F3000002003900490059007900C20069002A9C1
:101F40000B4800F07BF801220A49094800F055F8D7
:101F50000121074800F01EF81B216846017100218D
:101F600041710121817101A8FFF7D0F90AB010BDBC
:101F7000003801400501050000BF0549C9698022FC
:101F800011408029F9D102492031088170470000B1
:101F900000380140002904D0026801231A4302607E
:101FA00003E00268520852000260704770B50246B2
:101FB0000B4600240021002500201E04350ED9B256
:101FC00001268E403146012D02D11668314006E0CF
:101FD000022D02D15668314001E0966831401C0C58
:101FE0000126A6403446D6693440002903D0002C8F
:101FF00001D0012000E0002070BDF8B503460024A8
:10200000002600960025002018460E04340ECEB29D
:1020100000960127009EB7403D46022C01D1001DCD
:1020200002E0032C00D10830002A03D006682E43BA
:10203000066002E00668AE430660F8BDF0B589B000
:1020400004460D460027002008900026206840081E
:102050004000206066680321090330468843064635
:10206000A86806436660266827480640E9686868ED
:1020700008432969084306432660A668032109022C
:1020800030468843064668690643A66001A8FFF704
:10209000A9FC1E48844202D10798089001E00398E9
:1020A000089020680121C903084000280CD0296845
:1020B000089A5000FEF75CF807462968089A500015
:1020C000FEF756F80E4609E029680898FEF750F822
:1020D000074629680898FEF74BF80E46286840081E
:1020E000B04200D87F1C20680121C90308400028A5
:1020F00006D03807460F38460549084030430746A2
:10210000A78109B0F0BD0000F3E9FFFF00380140EE
:10211000F0FF0000F8B505462C4602211148FEF7F5
:1021200067FE00261BE0274680200740802F05D150
:1021300080210920C006FEF75DFE04E08021092011
:10214000C006FEF755FE6006040E02210548FEF7A4
:1021500051FE02210348FEF74BFE701CC6B2082E4A
:10216000E1DBF8BD0004004810B50446FEF7E2FFCD
:102170007820FFF7CFFFFFF705F80020FFF7CAFF31
:10218000FFF700F82046FFF7C5FFFEF7FBFFFEF75D
:10219000E7FF10BD10B50446FEF7CCFF7820FFF72F
:1021A000B9FFFEF7EFFF4020FFF7B4FFFEF7EAFFAD
:1021B0002046FFF7AFFFFEF7E5FFFEF7D1FF10BDAA
:1021C00030B47446641E2578641CAB4204D3635D4E
:1021D0005B00E31830BC18471D46F8E710B5002136
:1021E000012000F0E1F90021022000F0DDF910BD2E
:1021F000F0B585B004463149E01C085C02900298B5
:102200000300FFF7DDFF0F090C0F121D21255647B4
:1022100056565656564A560000F01EF94AE000F04F
:102220005BFA47E000F010F944E02449A01D085C87
:102230002349087000220321084600F0CFFB39E053
:1022400001202049087035E001201F49087031E065
:102250001A49201D085C07020A46611D515C0F43A4
:10226000002514E0A01D4019801C1449085C0602DA
:10227000A01D4019C01C085C801986B20919891D6F
:10228000481900F023F80390301D281885B2BD428C
:10229000E8DB0FE0FFF7A2FF0CE00849A01D085C97
:1022A0000190E01D085C00900099019800F004FB8B
:1022B00000E000BF00BF05B0F0BD00003C02002000
:1022C000370200203502002036020020FEB5044609
:1022D00026786778A0780502E078401985B2304604
:1022E00000F09AF8019001984000074940184078A2
:1022F000B84201D00020FEBD2A46211D304600F024
:1023000077F800900098F6E7D034000810B5042064
:10231000C043FFF77FFD084908480068FDF728FF24
:1023200040B207490870002008567D21C900484383
:1023300000B20449088010BD00127A00000000209D
:1023400014000020160000200146124A0023D35E2C
:102350000A465A43104B5A6100229A611A46126982
:1023600001231A430C4B1A6100BF0B4A1069C207C4
:10237000D20F002A04D0012212040240002AF4D015
:10238000054A126952085200034B1A6100229A61F1
:10239000704700001600002000E000E00146124AED
:1023A0000023D3560A465A43104B5A6100229A61C1
:1023B0001A46126901231A430C4B1A6100BF0B4ADB
:1023C0001069C207D20F002A04D001221204024071
:1023D000002AF4D0054A126952085200034B1A61D0
:1023E00000229A61704700001400002000E000E025
:1023F000034600BF00BF00BF704730B50246002053
:10240000002305E01578521C2C18E0B25C1CA3B226
:102410008B42F7DB30BD000070B5054600F012F8C6
:102420000646002407E060000549085CA84200D188
:1024300003E0601CC4B2B442F5DB00BF204670BDAF
:10244000D03400080220704710B500242246032132
:10245000022000F0C3FA10BD10B500240B4800782C
:10246000002808D10021204600F0B8F9C4B20120AC
:102470000649087004E00121204600F0AFF9C4B21B
:1024800022460321002000F0A9FA10BD38020020E6
:1024900008B500240025FFF739FFFEF71DFFFFF701
:1024A0006BFAFFF72DFCFEF7A5FFFEF777FE4B203A
:1024B000C001FFF715FD00F0E9F920210920C00651
:1024C000FEF798FCFEF75AFF7D200001FFF73CFF66
:1024D00068E000F0F7F9FEF775FE0546012D04D01F
:1024E000022D06D0032D11D10AE0002000F09EF845
:1024F00010E0FEF7CBFE601CC4B2FEF76CFF09E0F3
:1025000020210920C006FEF773FC03E00A20FFF734
:102510001BFF00BF00BF00F083F8002806D0012891
:1025200007D0022808D0032812D10BE0FEF7AEFE38
:102530000FE0FEF7BDFE0CE010210920C006FEF7FB
:1025400059FC06E010210920C006FEF751FC00E00E
:1025500000BF00BF2046E10F091849104900611A69
:1025600002D1FEF738FF01E0FEF727FFFFF768FB17
:102570000090FFF709FB06460098FEF791FA0A2142
:10258000484307463946012000F00EF83046FEF772
:1025900087FA07463946022000F006F831460098CF
:1025A000FFF78EF995E7000070B505460C4600264A
:1025B0001A480078012800D170BD2946304600F045
:1025C0000DF906460221304600F008F906460021C2
:1025D000304600F003F906460421304600F0FEF8CC
:1025E0000646210E304600F0F9F806462002010E9C
:1025F000304600F0F3F806462004010E304600F0A5
:10260000EDF80646E1B2304600F0E8F806463246FC
:102610000321072000F0E2F90120CDE73402002079
:1026200001480078704700003702002070B504466A
:1026300000250020064908702146284600F0CEF803
:10264000C5B22A460321052000F0C8F970BD00007C
:1026500036020020F0B505460E4613462A4634469B
:10266000002D01D0002E01D10020F0BDA24202D9E0
:10267000E018904208D2002103E0605C5054481CEE
:1026800081B29942F9DB09E0194605E0481E205C59
:102690004F1ED055481E81B20029F7DC2846E4E7DA
:1026A00001460022002900D17047002200E0521CA0
:1026B0000B78491C002BFAD11046F5E710B50246FD
:1026C000012002E00346534318460B464C1EE1B27C
:1026D000002BF7D110BD00003EB500240020009073
:1026E0000190029025A0FFF7DBFF85B22A4623A1C7
:1026F000204600F061F8C4B222A0FFF7D1FF85B2F6
:102700002A4620A1204600F057F8C4B222A0FFF7C5
:10271000C7FF85B22A4620A1204600F04DF8C4B27A
:102720001FA0FFF7BDFF85B22A461DA1204600F07D
:1027300043F8C4B21CA0FFF7B3FF85B22A461AA122
:10274000204600F039F8C4B219A0FFF7A9FF85B2FE
:102750002A4617A1204600F02FF8C4B215A0FFF7B3
:102760009FFF85B22A4613A1204600F025F8C4B287
:1027700022460321012000F031F93EBD7B22702268
:102780003A220000656A726C62787169386F313084
:102790003662336B00000000222C2276223A22009F
:1027A000312E302E30000000222C226D223A000003
:1027B000320000007D000000F8B504460E461546C4
:1027C000054807192A4631463846FFF743FF601986
:1027D00084B22046F8BD000078020020024B1A188F
:1027E0001170431C98B27047780200200B490968A9
:1027F0000B4A126891420FD008490A6809498A4277
:1028000002D31739054A1160044909680878034959
:102810000968491C014A116070470000300200201D
:102820002C0200207202002012490968124A126824
:10283000891A01291CD0104909680E4A1268914270
:1028400006D90D4909680B4A1268891A17290FD24F
:1028500009490A6809498A4202D31739064A1160B0
:1028600005490968087004490968491C024A116051
:1028700070470000300200202C020020720200206D
:1028800010B504462046FFF777FB10BD0548064902
:10289000086006490860002005490870FF200549C6
:1028A000087070475B0200202C02002030020020DC
:1028B0003402002037020020002802D1002900D075
:1028C00000BF704770B50024002509E0FFF78EFFB8
:1028D00036490A880988491C344B19803449885480
:1028E000324800881F2803D200F09AF80028EDDC57
:1028F0002E480088072800DA70BD3FE02C48005DB4
:10290000552802D0601C84B238E02949601C085C5C
:10291000AA2802D0601C84B230E02549A01C085CC3
:10292000002802D0A01C84B228E02149201D085CA8
:102930000502601D085CC01D401985B2262D02D914
:10294000E01C84B21AE019480088001BA84200DA93
:1029500019E06A1E91B2164A1019FFF74EFD61196F
:10296000491E134A515C884202D0E01C84B205E043
:102970002046FFF73DFC601984B200BF0B48008879
:10298000001B0728BADA00BF08480088001B074967
:10299000088008460088002806DD0548011903481C
:1029A00002880348FFF756FE00BFA5E72802002073
:1029B0003C02002070B504460D46002C01D0002DCD
:1029C00000D170BD03E02078FFF75AFF641C284651
:1029D000691E8DB20028F6D100BFF2E7F8B50546B2
:1029E0000E461446002755200C490870AA2048704E
:1029F00008468670C570201208714C71E01D84B2C3
:102A0000601E81B20548FFF7F8FC0746601E0349C7
:102A10000F5421460148FFF7CDFFF8BD7202002098
:102A20000448006804490968884201D001207047C1
:102A30000020FCE72C0200203002002070B50125A8
:102A40000400ED074C4020D4441A01D2001B0919A0
:102A5000C60D4B00F2B2FF2A29D01B0E2CD000026B
:102A60000C02D31A2C43DC402843051910D2280A43
:102A700002D3401C6D0611D0761EF6058019FF2A80
:102A800000DA70BDC00DC00570BD694000F0B2F83D
:102A900001200543C541521C761CE8E764089C40B0
:102AA000C90161408900E7D10124A043E4E71B0E7E
:102AB000440200D0034870BD002AFCD1C00FC007FB
:102AC00070BD00BF0000C07F70B5420064414B0084
:102AD0005C41120E39D01B0E38D0FF2A3CD0FF2BA0
:102AE0003AD040024902400A490A060045184E43BE
:102AF000000A090AD2184843ED017F3A0104731A0B
:102B00004019190C4318990F04D001215B0849079B
:102B10005B1A521CD80904D3401CF50301D19D0651
:102B200007D0FF2A08D2D50506D0E4072043401974
:102B300070BD0125A843F4E7002A01DCE00770BD61
:102B40002402FF202043C00570BD1B0EFF2A03D0C6
:102B5000FF2B01D0E00770BDFF2645003606B542C9
:102B600006D84D00B54203D8D218FF2A00D0E7E7B7
:102B7000004870BD0000C07F01230A00DB0502434E
:102B80000DD4DA4203D49A4207D481427047D94225
:102B900014D4D84212D48142704789427047DA4235
:102BA00003D59A42F9D5884270475B004A00DA4261
:102BB00004D24200DA4201D2884270474840414084
:102BC00010B5024A4840FDF7C1FF10BD09001604C8
:102BD00070B50125ED07684004004C4002D56940FE
:102BE00000F008F8FFF730FF70B501250400ED078D
:102BF0004C4022D4441A02D26C40001B0919C60D65
:102C00004B00F2B2FF2A4BD01B0E50D000020C0238
:102C1000D31A2C43DC40A843051B05D5AD0019D3BE
:102C20006D08761E521E37D0F605280A01D280198B
:102C300070BD70416D0603D070BD6940FFF704FFA1
:102C40009C4009026140490001D0401E70BD012432
:102C5000A04370BD6D081DD001202B0C01D12D04A7
:102C600010302B0E01D12D0208302B0F01D12D0178
:102C7000001DAB0F01D1AD00801CEB0F01D16D0029
:102C8000401C6D00361A121A680AF5054019012A0F
:102C900002DB70BD002070BDC036300AC00770BDB9
:102CA0001B0E440201D1FF2B00D1024870BD002A47
:102CB000F0D070BD0000C07F0000000000000000E8
:102CC000002F000000000700070000147F147F148D
:102CD00000242A7F2A120062640813230036495513
:102CE000225000000503000000001C2241000000EB
:102CF00041221C000014083E08140008083E080881
:102D0000000000A0600000080808080800006060DB
:102D10000000002010080402003E5149453E00001A
:102D2000427F4000004261514946002141454B31FC
:102D3000001814127F10002745454539003C4A49C8
:102D4000493000017109050300364949493600063A
:102D50004949291E000036360000000056360000A2
:102D6000000814224100001414141414000041221D
:102D7000140800020151090600324959513E007CF5
:102D80001211127C007F49494936003E41414122DF
:102D9000007F4141221C007F49494941007F0909C8
:102DA0000901003E4149497A007F0808087F000078
:102DB000417F4100002040413F01007F0814224133
:102DC000007F40404040007F020C027F007F0408EB
:102DD000107F003E4141413E007F09090906003E47
:102DE0004151215E007F0919294600464949493170
:102DF0000001017F0101003F4040403F001F204093
:102E0000201F003F4038403F006314081463000750
:102E10000870080700615149454300007F414100A7
:102E200000552A552A55000041417F000004020147
:102E30000204004040404040000001020400002025
:102E400054545478007F4844443800384444442063
:102E500000384444487F00385454541800087E0910
:102E600001020018A4A4A47C007F080404780000D8
:102E7000447D4000004080847D00007F1028440095
:102E80000000417F4000007C04180478007C0804A6
:102E9000047800384444443800FC242424180018E2
:102EA000242418FC007C08040408004854545420CE
:102EB00000043F444020003C4040207C001C204057
:102EC000201C003C4030403C004428102844001C9A
:102ED000A0A0A07C004464544C4414141414141492
:102EE00000000000000000000000000000000000E2
:102EF000000000F800000000000000333000000077
:102F000000100C06100C060000000000000000007D
:102F100040C07840C0784000043F04043F040400EF
:102F2000007088FC08300000001820FF211E0000FF
:102F3000F008F000E018000000211C031E211E0014
:102F400000F00888700000001E212324192721109A
:102F500010160E000000000000000000000000003D
:102F6000000000E0180402000000000718204000E4
:102F700000020418E00000000040201807000000D4
:102F8000404080F0804040000202010F0102020038
:102F9000000000F0000000000101011F010101001C
:102FA000000000000000000080B070000000000081
:102FB000000000000000000000010101010101010A
:102FC00000000000000000000030300000000000A1
:102FD0000000000080601804006018060100000076
:102FE00000E010080810E000000F102020100F0073
:102FF000001010F8000000000020203F20200000FA
:103000000070080808887000003028242221300051
:1030100000300888884830000018202020110E0059
:103020000000C02010F8000000070424243F240002
:1030300000F80888880808000019212020110E00D7
:1030400000E0108888180000000F112020110E00E9
:1030500000380808C83808000000003F00000000E1
:103060000070880808887000001C222121221C00A2
:1030700000E010080810E0000000312222110F00CB
:10308000000000C0C0000000000000303000000060
:1030900000000080000000000000806000000000D0
:1030A00000008040201008000001020408102000E9
:1030B0004040404040404000040404040404040034
:1030C00000081020408000000020100804020100C9
:1030D000007048080808F0000000003036010000C9
:1030E000C030C828E810E0000718272423140B007C
:1030F0000000C038E0000000203C230202273820F6
:1031000008F8888888700000203F202020110E00D9
:10311000C0300808080838000718202020100800D0
:1031200008F808080810E000203F202020100F00B9
:1031300008F88888E8081000203F20202320180085
:1031400008F88888E8081000203F200003000000ED
:10315000C03008080838000007182020221E02008E
:1031600008F808000008F808203F210101213F204D
:10317000000808F8080800000020203F2020000078
:1031800000000808F8080800C08080807F00000068
:1031900008F888C028180800203F200126382000A1
:1031A00008F8080000000000203F20202020300008
:1031B00008F8F800F8F80800203F003F003F200022
:1031C00008F830C00008F808203F200007183F002A
:1031D000E01008080810E0000F10202020100F0059
:1031E00008F808080808F000203F2101010100004C
:1031F000E01008080810E0000F18242438504F0091
:1032000008F8888888887000203F2000030C302050
:1032100000708808080838000038202121221C008E
:10322000180808F8080818000000203F20000000D7
:1032300008F808000008F808001F202020201F00C0
:103240000878880000C83808000007380E01000020
:10325000F80800F80008F800033C0700073C0300EA
:10326000081868808068180820302C03032C302050
:103270000838C800C83808000000203F20000000BF
:1032800010080808C8380800203826212020180017
:10329000000000FE020202000000007F40404000EB
:1032A000000C30C000000000000000010638C00023
:1032B00000020202FE000000004040407F000000CB
:1032C00000000402020204000000000000000000F0
:1032D00000000000000000008080808080808080EE
:1032E00000020204000000000000000000000000D6
:1032F00000008080808000000019242222223F20CC
:1033000008F8008080000000003F112020110E000E
:103310000000008080800000000E1120202011009D
:10332000000000808088F800000E112020103F204F
:103330000000808080800000001F222222221300D3
:10334000008080F0888888180020203F202000001E
:103350000000808080808000006B949494936000D3
:1033600008F8008080800000203F210000203F20DE
:1033700000809898000000000020203F20200000DE
:10338000000000809898000000C08080807F0000CE
:1033900008F8000080808000203F24022D302000AB
:1033A000000808F8000000000020203F2020000056
:1033B0008080808080808000203F20003F20003F70
:1033C0008080008080800000203F210000203F207E
:1033D0000000808080800000001F202020201F002F
:1033E000808000808000000080FFA12020110E005E
:1033F0000000008080808000000E112020A0FF804F
:10340000808080008080800020203F2120000100FB
:103410000000808080808000003324242424190050
:10342000008080E0808000000000001F202000005D
:103430008080000000808000001F202020103F209E
:10344000808080000080808000010E30080601002E
:1034500080800080008080800F300C030C300F00D3
:1034600000808000808080000020312E0E312000FE
:10347000808080000080808080818E70180601002E
:1034800000808080808080000021302C222130004C
:1034900000000000807C020200000000003F40406D
:1034A00000000000FF00000000000000FF0000001E
:1034B0000002027C800000000040403F000000004D
:1034C00000060101020204040000000000000000E8
:1034D000010202028182838485868788898B8C8D94
:1034E0008E8F919293959697999A9C9D9FA0A2A357
:1034F000A5A7A8AAACAEB0B2B3B5B7B9BCBEC0C29E
:10350000C5C7C9CCCED1D4D7D9DCDFE2E6E9ECF02F
:10351000F3F7FAFE34350008000000203C020000FA
:10352000B20C0008203600083C020020D40600003F
:10353000F400000811846CDC025009010203040647
:10354000070809000E12101090101011161010101C
:10355000D010101A40012808435C4040504C430BE7
:10356000091020100920D04C4344C8102022F80232
:1035700014FF10083F40444847407005120F408038
:103580007F151060028C000B1120102824E32428E2
:10359000102020000F1304047E0120110D41817FB3
:1035A00001050931000E12C2BA8282FE8280FC0639
:1035B0001544847C1720100846817F0809141013D5
:1035C00012125292423E80112BFE92010213FE29EA
:1035D000801E407E42427E020413427E402809FC47
:1035E000242424FC25262408021104081014403049
:1035F0008F80844C55252525554C80808080497FBF
:10360000091780080B504448507F40407F50484481
:1036100080412D0102030404051406070809000077
:04000005080000B13E
:00000001FF
